:020000040800F2
:10000000801A0024451C0008DF550008311C000838
:10001000311C0008311C0008311C000800000000E1
:100020000000000000000000000000007D1C00082F
:10003000311C0008000000002D1E0008453100089A
:10004000A91E0008A91E0008A91E0008A91E000874
:10005000A91E0008A91E0008A91E0008A91E000864
:10006000A91E0008A91E0008A91E0008A91E000854
:10007000A91E0008A91E0008A91E0008A91E000844
:10029C0053B94AB9002908BF00281CBF4FF0FF31E1
:1002AC004FF0FF3000F00CB8ADF1080C6DE904CE46
:1002BC0000F010F8DDF804E0DDE9022304B070472B
:1002CC00704700BF034613F8012B002AFBD1181A04
:1002DC00013870472DE9F0478C468E46089E15462E
:1002EC0004461946002B40F0D080724547D9B2FA2B
:1002FC0082F74FB1C7F120030EFA07FC20FA03F383
:10030C00BD4043EA0C0CBC404FEA154EA8B2BCFBF6
:10031C00FEF8230C0EFB18CC08FB00F943EA0C4347
:10032C00994528D9EB1808F1FF3204D2994502D926
:10033C00A8F102022B44A3EB0903A4B2B3FBFEFC0D
:10034C000EFB1C330CFB00F044EA0344A04214D90E
:10035C002C190CF1FF3304D2A04202D9ACF10203E8
:10036C002C44241A43EA02401EB1FC4000233460A2
:10037C007360BDE8F0874246DDE76346F1E7002A8B
:10038C0079D0B2FA82F3002B3FD01946C1F1200389
:10039C0002FA01F52EFA03F20EFA01FE20FA03F32B
:1003AC0043EA0E034FEA154E00FA01F4B2FBFEFCD1
:1003BC00AFB20EFB1C201A0C0CFB07F842EA0042F1
:1003CC0090455AD9AA180CF1FF3004D2904502D9A5
:1003DC00ACF102002A44A2EB08029BB2B2FBFEFC79
:1003EC000EFB1C220CFB07F743EA02439F4246D943
:1003FC00EB180CF1FF3204D29F4202D9ACF102028D
:10040C002B44DB1B42EA004202E0AEEB020301226A
:10041C004FEA154EAFB2B3FBFEFC200C0EFB1C33A7
:10042C000CFB07F840EA034398452AD9EB180CF16A
:10043C00FF3004D2984502D9ACF102002B44A3EB57
:10044C000803A4B2B3FBFEFC0EFB1C330CFB07F73A
:10045C0044EA0344A74216D92C190CF1FF3304D2F9
:10046C00A74202D9ACF102032C44E41B43EA00403E
:10047C000F46114678E71F2188E76046ABE76246D6
:10048C00BFE76046DBE76346EFE7734506D916B96D
:10049C00002108466DE7C6E9000EF9E7B3FA83F7C9
:1004AC0087B9734501D3824207D8841A6EEB0303D4
:1004BC0001209C461EB900215BE73846FAE7C6E9E5
:1004CC00004CF8E7C7F1200CBB4022FA0CF51D4399
:1004DC0020FA0CF12EFA0CF30EFA07FE41EA0E018B
:1004EC004FEA154900FA07F4B3FBF9F81FFA85FE39
:1004FC0009FB18300B0C08FB0EFA43EA00439A4533
:10050C0002FA07F240D9EB1808F1FF3004D29A45F1
:10051C0002D9A8F102002B44A3EB0A0389B2B3FB66
:10052C00F9F809FB183308FB0EFE41EA03418E452E
:10053C002CD9691808F1FF3304D28E4502D9A8F1E1
:10054C000203294443EA0040A0FB0298A1EB0E01F0
:10055C004145CE46434602D306D14C4504D2B9EBB5
:10056C00020E68EB05030138002EA4D0B4EB0E028A
:10057C0061EB030101FA0CFC22FA07F34CEA0303CA
:10058C00F940C6E9003196E74046C5E74346D9E74E
:10059C0010B51B4805F055FB18B91A4804F0D9FBE7
:1005AC002AE0194804F0D5FB154804F0DBF8144890
:1005BC0004F0E6F80446124804F0DEF82146024640
:1005CC00124804F0C6FB124804F0C3FB0C4804F0BC
:1005DC00CEF844F620620023094804F0DAF868B932
:1005EC00074804F0CDF80446054804F0C5F8214648
:1005FC000246084804F0ADFB002010BD0648CDE7CC
:10060C001C620008566A0008776A0008946A0008A1
:10061C00B16A0008DA6A0008F96A000838B50446BD
:10062C00456800690122002105F029FB6B68204612
:10063C0098472B68034A0321034804F004FF002069
:10064C0038BD00BF1B6B00085C67000870B5044622
:10065C00066904F095F80546084A03460321084844
:10066C0004F0F1FEEB0707D5204604F08DF8304678
:10067C00BDE8704002F0B0BF70BD00BF456B000814
:10068C005C670008024808B504F063FB002008BD55
:10069C00896B00080E4A0346904202D30D4A9042E1
:1006AC0011D30D4A22B1934202D30C4A93420AD37E
:1006BC000B4A52B10B48834234BF012000209342B5
:1006CC0038BF00207047012070471046704700BFAC
:1006DC00B85F0008A87500080000000000000000CA
:1006EC0000000000000000002DE9F04F91B005461D
:1006FC0016468B4600AF7B6351B9037890F80180A6
:10070C00807800EB83002844D84523D8A0EB050B58
:10071C00BB6E95F8028003F00103BC6E3B63B8F12D
:10072C00000F0CBF002404F00104EB787B6213B1C2
:10073C00BB6E9A0717D4B4B93EB17A6B59462846AA
:10074C00B0477A6B21462046B04758464437BD46E1
:10075C00BDE8F08F441C0BF1010B2046FFF7B2FDF6
:10076C0001302044D0E72B789A0008EB83033A61E0
:10077C007B61EB186A68BB627B6AFA605B00BB60EA
:10078C007B6A08EB4303202B00F23081BB6E13F025
:10079C0004033B620ED001244FF0000AC7F82C80F2
:1007AC0004FA08F4D146013C002308F10108C7E91A
:1007BC00063341E03B6B002B00F096804FF00109B3
:1007CC003B6AC24609FA08F91C46FB6209F1FF397B
:1007DC00EAE7BB6A0233BB6213F8013C55F823000D
:1007EC00FFF758FF0346002E5CD0BB6A786013F805
:1007FC00021CF86804F08DFA7B68002852D0C7F808
:10080C0004D08AB06A467B4B0593FB68CDE9063170
:10081C004FF40073ADF82030774B42F8103F0023B3
:10082C004FF41251754800F0F5FBD7F804D0BB69B2
:10083C0008F102080133BB61BB697A6A9342C8D3E1
:10084C002B7887F83C306B78534487F83D30FB6944
:10085C0087F83F30FB6A87F83E30002E4BD1D7F833
:10086C0010804FF0010A05EB08033B63002C52D1BA
:10087C00B9F1000F67D17869BB681844BBEB000471
:10088C0000F0AF80002E00F0A9807A6B214628443E
:10089C00B0470028FFF65AAFA04400217A6B0846F7
:1008AC00B047A1E0A3B13B6B3BB101230AF1010AB4
:1008BC0003FA08F349EA0309B9E73B6A002BB6D0FF
:1008CC00012303FA08F31C43FB6A0133FB62AEE716
:1008DC00BB6E9B07E9D408F1FF32032393401C4302
:1008EC00FB690133FB61A2E7D7F830A0D14654462F
:1008FC00C7F82CA058E77A6B042107F13C00B047ED
:10090C000028FFF623AF3B69281D7A6B191FB047EF
:10091C000028A4DA1AE794FAA4F33A6BB3FA83F337
:10092C00D25C0AFA03F387F83B2024EA03043EB1B5
:10093C007A6B012107F13B00B0470028FFF606AFA8
:10094C0008F1010892E799FAA9F33A6BB3FA83F329
:10095C00D25C55F822A087F83B20012202FA03F35F
:10096C0029EA03094EB17A6B012107F13B00B0472C
:10097C000028FFF6EBAEFB6ECBB90021204B08F143
:10098C000108BAF1000F08BF9A46C6B95046FFF7E6
:10099C0099FCFB6E01308044002B3FF469AF3B6F38
:1009AC009C423EBFFB6E23F81400013460E73B6FA2
:1009BC009C42E2D2FB6E33F814100134DEE741B1F5
:1009CC0089B27A6B5046B0470028FFF6BFAE804420
:1009DC004EE75046FFF776FC411CF1E708EB0400AC
:1009EC00B4E6002E7FF459AF4046AFE66FF01B0023
:1009FC00ACE600BFCC6B0008040000015467000893
:100A0C00C56B0008014B1860704700BF080000243C
:100A1C00054B00205A6822F002025A605A6822F0F4
:100A2C0001025A60704700BF0010005C08B54168B5
:100A3C0005480C3183681B681BB1984700EAE070CD
:100A4C0008BD6FF05700F9E7786000080A2810B568
:100A5C0002D90024204610BD044B53F820402046F8
:100A6C0005F0EFF80028F5D1F3E700BFC8680008DF
:100A7C00002300200021E3E80201B3F5803FFAD106
:100A8C004FF000530021034A43F8041B9342FBD15F
:100A9C00704700BF0000022008B501F045FA01F0D4
:100AAC0015FA0C4B0C4A1A600C4AD36823F0070356
:100ABC0043F00203D3600A4B1A6841F20303B3EB11
:100ACC00124F06D1074AD2F8083143F00103C2F89D
:100ADC00083108BD340000240090D00300480258AF
:100AEC000010005C008000512DE9F04704460746D9
:100AFC004FF00109DFF84C8094FAA4F5B5FA85F5AE
:100B0C0009FA05F32E0108EB05156FEA030A24EA2E
:100B1C0003042B7B63B158F806301B696BB9464450
:100B2C000422284607EA0A077368196804F012FCC5
:100B3C00002CE1D13846BDE8F087284698470028BC
:100B4C00F6D1ECE7CC67000810B5002288B00E494E
:100B5C000E4805F095F90022002300240C490D489D
:100B6C000094CDE906230E234FF44072CDE90334F3
:100B7C00CDE90144084B02F0F1FD0849054805F0A8
:100B8C0090F8204608B010BDAD0B0008700500248D
:100B9C0080090024D8000024CD0E0008796D0008CF
:100BAC00014802F019BD00BFC40000242DE9F04734
:100BBC00804620480F4604F0A5FB0646002832D09C
:100BCC0000252846BDE8F087237B83B12368DB68CA
:100BDC000BB120469847636883F8069023681B691D
:100BEC00CBB9636804222046196804F0B3FB0136C4
:100BFC0010345445E8D3B8F1000FE2D0002DDFD00B
:100C0C002846FFF771FF0546002FF7D0642000211E
:100C1C0002F0C4FFF2E7204698470028E1D009FA19
:100C2C0006F31D43E3E7044C0546DFF810A04FF034
:100C3C000109DEE758080024CC670008DC670008CF
:100C4C00014B53F8200070474C69000808B5034667
:100C5C0008462BB1044A136000F04EFC002008BD7E
:100C6C006FF01500FBE700BF0C00002410B5044C1E
:100C7C00237813B9034802F0AFFC0123237010BD95
:100C8C0070090024C400002410B504460B4804F07D
:100C9C0039FB5CB10A4BBFF35B8F53E8001F013982
:100CAC0043E80012002AF8D1BFF35B8F054803F02C
:100CBC00B3FA0548BDE8104002F08EBC5008002481
:100CCC005408002470050024C4000024064B0022A4
:100CDC00BFF35B8F53E8000F43E800210029F9D1E3
:100CEC00BFF35B8F704700BF5008002470B5FFF74F
:100CFC00EDFF084C0546084EB44200D370BD636846
:100D0C005B792BB123685B6813B129462046984761
:100D1C001034F1E7CC670008DC67000810B5044C10
:100D2C000449204604F021F9034B1C6010BD00BFA0
:100D3C0088000024386900084808002400230D4A64
:100D4C004FF47A710C4810B513700C4A13600C4AAE
:100D5C001360FFF77BFFFFF7E1FF0A4B0A491846C8
:100D6C008B4200D310BD1A1A5C6810331211013279
:100D7C002271F5E7710900242B5300085008002458
:100D8C0054080024CC670008DC67000801460022E8
:100D9C000023014804F00AB988000024014804F03B
:100DAC009BB900BF88000024024B0146186804F070
:100DBC00E9B900BF48080024014804F01CBA00BF80
:100DCC0088000024274B70B51B78002B47D0FFF709
:100DDC00E5FF044600283FD1234B244D1B68002B14
:100DEC0012DD05F04BF80A220023FFF751FAD5E982
:100DFC000032C01A40F2E93361EB0201984271F102
:100E0C00000101D3FFF772FFD5E9003213F57A73B5
:100E1C0042F10002C5E900320CB3BDE87040FFF7A7
:100E2C00CBBF6B685B7923B12B68214628461B68C6
:100E3C0098471035B542F4D32046FFF7B5FF0C4B5D
:100E4C00BFF35B8F53E8001F013943E80012002AFF
:100E5C00F8D1BFF35B8FBFE7064D074EEAE70020E2
:100E6C0070BD00BF700900245008002468050024E0
:100E7C0054080024CC670008DC67000870B50D4DE1
:100E8C00297861B90C4C01200C4EFFF78FFEB4424F
:100E9C0006D3FFF797FF0028FBD101232B7070BD01
:100EAC0063685B791BB1236820469B6898471034B4
:100EBC00EDE700BF71090024CC670008DC6700086F
:100ECC0000212DE9F8430846FFF770FE044648B3AD
:100EDC004FF4FA784FF000091B4B00F0F1FF1B4A5E
:100EEC001B58136033B11A4B1B68092B02DD1948D0
:100EFC0002F072FB0025184F44B12046FFF7F4FDB9
:100F0C00044618B94FF0FF384FF0FF39FFF75AFF7E
:100F1C00064628B9B5B90F4842464B4602F090FB3D
:100F2C003546E9E74FF0FF384FF0FF39D4E72B682F
:100F3C009B691BB100222846114698471035BD42CB
:100F4C00F5D3E8E7054DFAE7080000004C0800244B
:100F5C0054080024C4000024DC670008CC67000897
:100F6C0013B5174804F0CEF9164B1B7863B1EFF3A9
:100F7C001184102383F31288BFF36F8FFFF722FFC6
:100F8C0084F3118802B010BD0F4B1B68002BF9D0F5
:100F9C0050B9002200230D48CDE9002342F2107213
:100FAC00002303F015F9EDE70928EBD1074803F00E
:100FBC0033F9074802B0BDE8104002F00DBB00BF8A
:100FCC0054080024710900244C08002470050024E6
:100FDC00C4000024064B10B504461B6898472146F4
:100FEC00A060044804F05BF8BDE81040FFF7B8BF00
:100FFC000C00002488000024044A054B9B1AB1EB1A
:10100C00D30F34BF52F831000020704754670008EA
:10101C00CC6700082DE9F04F8FB0C1F34A260D467E
:10102C00904604AF0C0DB8607B60002E61D04FF081
:10103C0000090A234FF0040B07F1140AFE604A461C
:10104C00C7F824904046C7E90799009307F11C03A1
:10105C00CDF808B0CDF804A0F968FFF745FBB0F562
:10106C00006F03461CD36C468AB0D8F8041004AB4E
:10107C0024481A46C3E9050140F2FF71D9614FF4C7
:10108C0000711984204B42F8103F4FF412514B461B
:10109C001E48FFF7BFFFA5462C37BD46BDE8F08FB5
:1010AC00C0F30A0604F117003B60184466F353259D
:1010BC0020F007008008FFF769FE044680B13B680A
:1010CC0000F11001124A4046F961C7E908390A23B8
:1010DC00009307F11C03CDE901ABF968FFF704FBA2
:1010EC0066F353257B68B96820462A4604F052F90A
:1010FC00D2E704F1170020F007008008FFF746FE46
:10110C000446EDE78E6D00080400000174670008CA
:10111C00735300082DE9F04F87B0054688461446F6
:10112C009946DDE9127ADDE9106BBFB110213B461F
:10113C005A460020CDF800A0CDF814A003F00FFC07
:10114C00B0F5006F01460BD340F2FF73184A022131
:10115C00184807B0BDE8F04F04F075B93946384669
:10116C0004F0070305F00704E40044EA831444EA9E
:10117C00402444EA065406F117000391084420F079
:10118C0007008008FFF702FE054640B13FB13B4621
:10119C005A4603991030CDF800A003F0E0FB4B4603
:1011AC0022464146284607B0BDE8F04F04F0F2B89D
:1011BC00CD6D000874670008406820B1034BC01A5D
:1011CC0040F3CF0070474FF0FF3070475467000872
:1011DC000EB403B503AB0146054853F8042B019339
:1011EC0001F03CF802B05DF804EB03B0704700BFAF
:1011FC009D540008CA0605D48B064CBF024903490E
:10120C00FFF7E6BF704700BF066E0008056E0008CA
:10121C002DE9F04F8BB0994604460D46179B9DF86F
:10122C00588007931A9F0692DDE918A30593B8F12D
:10123C00000F00F0BF80844B07F0020B13F808304E
:10124C00089307F48073099304F082F8024600288F
:10125C007DD07E492046FFF7BBFF0646BBF1000F51
:10126C0008D017F0440F74D12A4679492046FFF76D
:10127C00AFFF064407F0010353B1764B2046764985
:10128C0053F82820754B002A08BF1A46FFF7A0FF19
:10129C0007F48073002B07F0080318BF4FF0000908
:1012AC00002B00F082806E4B20466E4953F82820AC
:1012BC00FFF78EFF0546069B2BB11A466A4920465E
:1012CC00FFF786FF0544B9F1000F0DD0089B002BEA
:1012DC006ED06649664BB8F1040F18BF19464A46E2
:1012EC002046FFF775FF054435446248079B1BB148
:1012FC002246614903F0DCFC059B002B00F090803A
:10130C00DDF81490002639462046B9F1100F28BF9D
:10131C004FF01009FFF76EFFB54252DC0026334642
:10132C001AF8032020465549FFF752FF0136102EBC
:10133C004DD0710703D152492046FFF749FF4E4566
:10134C003346EDD34F492046FFF742FFEEE7064602
:10135C0084E74D4B186800288BD04C4B4FF47A7BAC
:10136C004FF03C0C1B68B5FBF3F5B5FBF0F100FB43
:10137C0011554FF461630BFB05F5B1FBF3F2B5FBB3
:10138C00F0FE03FB121100FB1E55B1FBFCF30BFB33
:10139C0005F50CFB1311B5FBF0F5009120463C490B
:1013AC00CDE901E5FFF714FF63E707F0080582E7D5
:1013BC002F4994E7B9F1010F45460CBF2D4835482C
:1013CC0094E72F4920460136FFF702FFA4E70026D9
:1013DC0031492046FFF7FCFE33461AF8032020461D
:1013EC002E49A2F120035F2B28BF2E22FFF7F0FE1F
:1013FC000136102E0DD0720703D121492046FFF77C
:10140C00E7FEB1453346E8D81D492046FFF7E0FE1C
:10141C00EEE7059BCA44B3EB090305937FF470AF69
:10142C00B8F1000F0AD0FB0704D50C4A20460A4934
:10143C00FFF7CEFE39462046FFF7DCFE20460BB008
:10144C00BDE8F04F04F017B895750008166E00084B
:10145C001A6E00085C690008406E0008086E0008EF
:10146C0070690008436E0008496E00080D6E000894
:10147C00116E00089D540008692200084D6E00088A
:10148C00556E0008536E0008600800245C080024A8
:10149C00246E0008D3540008576E0008596E0008DB
:1014AC0042F20F73114A8B4273B5044628BF0B46A8
:1014BC0005680521684602F0DBFEA36806460B2290
:1014CC0028465B680A4903F0C8FFA36832466946A0
:1014DC0028465B6803F0C1FFA3681B2205495B68C3
:1014EC00284603F0BAFF02B070BD00BF516F000870
:1014FC00897500086D75000800210123064A904289
:10150C0006D8064A01B901231360054B18607047D1
:10151C00400801215B00F2E740420F005C08002408
:10152C0060080024F8B50D4604464618054FB44231
:10153C0001D12846F8BD14F8011BBB6801485B6853
:10154C009847F4E700620008014B036001207047E4
:10155C00BC69000880B505460E461746984602F051
:10156C009BFBDFF82090034600F0AAFC04464246A1
:10157C0049F8003039463046A84754F8090000F0C5
:10158C0039FC00BF0800000006480021064A08B5D7
:10159C00121A04F016F80548054A0021121A04F034
:1015AC0010F808BDD80000247809002400000020A1
:1015BC00000000200C480D4A0D49121A08B504F021
:1015CC0002F80C480C4A0D49121A03F0FCFF0C4AA5
:1015DC000C490D4803F0F7FF0C480D4A0D49121A3F
:1015EC00BDE8084003F0EFBF00000024D400002445
:1015FC00A87500080000002400000024A87500084D
:10160C00000000009C020008000000000000002008
:10161C00000000207C7600082DE9F047064600AF5C
:10162C000C4600293ED003F093FBE9468AB0A36830
:10163C00D4E900126D4625484FF0050AE846CDE97D
:10164C000501CDE9072348F810AF002342464FF4BB
:10165C0021511F48FFF7DEFCCD4603F079FB63698F
:10166C00AD46D4E903121B48C5F810A0C5E9050125
:10167C00C5E90723002342464FF421511448FFF7D4
:10168C00C9FCCD4603F064FBE369134A0121104801
:10169C0003F0D9FE03F05CFBA369104A01210C484E
:1016AC0003F0D1FE012E0AD1EFF3058503F050FBB8
:1016BC000B4AA5F110033146054803F0C4FE214640
:1016CC00304601F0E9FDBD46BDE8F087A66E000886
:1016DC0094670008D56E0008046F0008136F0008AB
:1016EC00416F000830BFFFF7FDBF00BF2DE9F0418F
:1016FC000B4E0546DFF82C80324606EB0807CC1B58
:10170C000949204604F0CDFBA019083C42460021B3
:10171C0004F0D5FB07F108002C67BDE8F08100BF91
:10172C000000000004000000DC67000810B503F0A6
:10173C000FFB264C2649274803F052FFA36A990158
:10174C0042D503F005FB2348234903F049FF1E2033
:10175C00A36ADA0106D503F0FBFA1E481F4903F011
:10176C003FFF1F20194CA36A1B0306D503F0F0FAA8
:10177C0018481B4903F034FF2120A36A590306D5EE
:10178C0003F0E6FA1348174903F02AFF22200F4C06
:10179C00A36A9A0306D503F0DBFA0E48124903F04C
:1017AC001FFF2320A36ADB0306D503F0D1FA0948F7
:1017BC000E4903F015FF2420044A936A6FEA034391
:1017CC006FEA1343936210BD1D20C1E700ED00E0EA
:1017DC00546F0008946700086C6F00087F6F000856
:1017EC00996F0008B76F0008DC6F0008F66F0008EF
:1017FC00F8B506460D4603F0ABFA2F4C2F4930488E
:10180C0003F0EEFEA36ADA0448D503F0A1FA2C48E3
:10181C002C4903F0E5FE1720A36A1B0506D503F03F
:10182C0097FA2748284903F0DBFE1820224CA36ABC
:10183C009F0516D503F08CFA2148244903F0D0FEFD
:10184C00A76BA36A18040BD503F082FA204A3B4617
:10185C0001211B4803F0F7FD16B14FF40043A362BE
:10186C001920154CA36A590506D503F071FA1448D2
:10187C00184903F0B5FE1A20A36ADA0510D503F057
:10188C0067FA0F48144903F0ABFE1B200A4A936A0F
:10189C0043F47F43936200232B70F8BD1620BBE703
:1018AC00A36A9B04F2D503F053FA05480B4903F0E5
:1018BC0097FE1C20EAE700BF00ED00E02170000855
:1018CC009467000837700008487000085B700008C7
:1018DC007470000889700008A4700008BC700008BF
:1018EC002DE9F84380468946174603F031FA3A4D04
:1018FC003A493B4803F074FEAB6ADE062DD503F083
:10190C0027FA11243749364803F06AFEAB6A1D07E3
:10191C0006D503F01DFA12243349314803F060FE5A
:10192C002D4EB36A98071AD503F012FA2F492C489A
:10193C0003F056FE756BB36A19064AD503F008FA24
:10194C002B4A2B460121264803F07DFDB9F1000FEF
:10195C0001D08023B362132403E01024D6E76FF088
:10196C0015051D4EB36ADA0706D503F0F1F91424F8
:10197C0020491B4803F034FEB36A9B0606D503F0DE
:10198C00E7F915241C49164803F02AFE124B9A6AF3
:10199C00D60602D49A6A90070AD55B68190507D552
:1019AC004146284600F0DEF910B180F30988022484
:1019BC00094B9A6A920603D55A6A22F400525A626B
:1019CC009A6A204642F0FF029A6200233B70BDE8FF
:1019DC00F8836FF01505BEE700ED00E0EB70000832
:1019EC009467000801710008487000083471000801
:1019FC004C71000862710008BC7000082DE9F041C0
:101A0C00744B8AB004460025D3F8048000AFC8F3A9
:101A1C00080685F3118802F07F43B3F17F4F09D19B
:101A2C0002F00C03082B13D103F092F96A496B48AE
:101A3C0003F0D6FD03F08CF96949684803F0D0FD3A
:101A4C0000210846FFF7E8FD2837BD46BDE8F081C8
:101A5C0010074CBF0C460125002CEBD00023FB716A
:101A6C00F31E092B00F29380DFE803F005878A83CD
:101A7C0091919191918D03F06BF95A49574803F06C
:101A8C00AFFD544E0023FB71F36A9A0707D503F0A0
:101A9C005FF95549514803F0A3FD002333E0F36A85
:101AAC00002B03DA03F054F95049F3E7F36A5B00B7
:101ABC00F3D503F04DF94E49484803F091FD736995
:101ACC00A26943F480737361BFF34F8FBFF36F8FC1
:101ADC0032F8023C726922F480727261BFF34F8F4C
:101AEC00BFF36F8F03F47F42B2F55F4F2AD1DBB2A5
:101AFC00022B27D103F02CF923683E4A01213748E9
:101B0C0003F0A1FC2368FA79002A9DD107F108069D
:101B1C0004F1200C2068083454F8041C3246644547
:101B2C0003C21646F6D17A6A002D4FD0C2F30801D3
:101B3C0021B96FEA52226FEA42227A6207F1080158
:101B4C0018467FE7234B9A6AD2B22AB1FA1D0121BB
:101B5C002046FFF7C5FE0EE09A6A12F47F4F04D0C0
:101B6C00F91D0120FFF744FE05E09B6AB3F5803FA9
:101B7C0093D3FFF7DBFD0346C5E7FA1D0021E7E72A
:101B8C00F91D0020EEE703F0E3F81B4982E703F0B0
:101B9C00DFF818F4F87F194AE8468AB0184B08BFEA
:101BAC0013466A461749103ECDE905134FF40073EE
:101BBC000796ADF82030144B42F8103F00234FF439
:101BCC0011510648FFF726FAC54666E76FF308027F
:101BDC00B3E700BF00ED00E0AF71000894670008A8
:101BEC00DA710008167200082D7200084E72000897
:101BFC005C7200087B720008977200088171000803
:101C0C0096710008BB72000804000001044B5A696D
:101C1C0042F010025A615A6922F008025A61704768
:101C2C0000ED00E0EFF30880EFF3098101B5724697
:101C3C00FFF7E4FE01BD00BF0B4880F30888FEF7F8
:101C4C0017FF102080F3118808484FF404614018E6
:101C5C0080F30988EFF314800221084380F3148881
:101C6C00BFF36F8F00F048F8801A0024C00C0024DA
:101C7C001EF0040F0CBFEFF30880EFF309808169AD
:101C8C0011F8021C0229FFD001B5724603F09DFC2D
:101C9C0001BD00BF00B2002807DB0123410900F0A1
:101CAC001F00024A834042F82130704700E100E0F7
:101CBC0000B2013100284FEA0111C9B206DB00F174
:101CCC00604000F5614080F80013704700F00F0091
:101CDC00014B1954704700BF14ED00E0044B054A4A
:101CEC0023F07F039360BFF34F8FBFF36F8F704769
:101CFC000000000800ED00E008B5FFF7EFFF0C4A0C
:101D0C00D2F8883023F47003C2F88830EFF31483D0
:101D1C0023F0040383F31488BFF36F8FFFF734FCB5
:101D2C00FFF748FC00F0AEF803F077FC01F0E4FBA1
:101D3C0000ED00E042F8203C203A009B084953603B
:101D4C00019B21F001019360029B9161D3604FF0E4
:101D5C008073D36100230265C0F88430704700BFE4
:101D6C0061150008094A0346906870B113F1160F0B
:101D7C00006E05D0A0F14002934205D3834203D2FA
:101D8C00814228BF00207047002070473C09002486
:101D9C0015460C4A0E4608B50B4B9060026F1A6044
:101DAC0000F0E8F82C4686F309880020034B98478E
:101DBC002046002100220023014C20470356000836
:101DCC00611500083C09002488080024014B1022EE
:101DDC001A61704700ED00E0044B5A699B689A4207
:101DEC0003D0034B4FF080525A6070473C090024DB
:101DFC0000ED00E0084B9B6883420AD1EFF30583AA
:101E0C003BB1064B4FF080525A605A6A22F40042A2
:101E1C005A6203F069BF00BF3C09002400ED00E0EA
:101E2C0015498A684FF030001044EFF3098C80E8B4
:101E3C00F01F102080F31288BFF36F8F0F4F4FF0FD
:101E4C0000664A698A603E60106F0D4C2060D2F8C3
:101E5C0084000023C2F8843080F3118804B5104646
:101E6C0000F088F8BDE8044002F1300090E8F01F63
:101E7C008CF30988704700003C09002404ED00E055
:101E8C0088080024002304481021C2180133972B22
:101E9C0082F80013F9D1704700E100E008B5EFF3C8
:101EAC000583064A103B02EBC30152F83300496824
:101EBC008847BDE80840FFF78FBF00BF38620008B5
:101ECC00014800687047000088080024154A70B566
:101EDC00536913F4803323D1C2F88430BFF34F8F8E
:101EEC00D2F8803043F6E074C3F3C900C3F34E3329
:101EFC005B0103EA0406014646EA81750139C2F822
:101F0C006052F9D2203B13F1200FF2D1BFF34F8F67
:101F1C00536943F480335361BFF34F8FBFF36F8F1B
:101F2C0070BD00BF00ED00E00B4B5A6912F400329B
:101F3C0011D1BFF34F8FBFF36F8FC3F85022BFF394
:101F4C004F8FBFF36F8F5A6942F400325A61BFF35F
:101F5C004F8FBFF36F8F704700ED00E0024B0121F4
:101F6C00024A034800F088B800000824000000244E
:101F7C00CC690008036E4021044A403B10461360B4
:101F8C00034BC2E90113012100F080B88C08002436
:101F9C0000000B1508B503460F48D0F89020C2F38B
:101FAC000722013A934207D90C4801210C4A03F04D
:101FBC004AFA6FF0150008BD0A6822F01F021A4396
:101FCC0042F01002C0F89C208A6842F00102C0F86E
:101FDC00A0201846EFE700BF00ED00E08C6700087A
:101FEC00D2720008F0B50E4685B01F460446002597
:101FFC00B5420DDA606810B397B1431E18420AD08F
:10200C00104A2B460121104803F01DFA6FF01502FF
:10201C00104605B0F0BD1F28F2D921680B42EFD154
:10202C00236801A9019303F0F9FAA3680343D0B222
:10203C000393FFF7AFFF10F1160FE7D0421C0135E9
:10204C000C34D5E7F87200088C670008044B0522A5
:10205C00C3F89420BFF34F8FBFF36F8F704700BF4F
:10206C0000ED00E0BFF35F8F024B0022C3F8942019
:10207C00704700BF00ED00E010B5034C012322783F
:10208C00FFF7B0FF207010BD730900240B4A08B590
:10209C0000231278FFF7A6FF10F1160F07D0084A9D
:1020AC000021D2F89030C3F30723984200DB08BD1F
:1020BC00C2F898000130C2F8A010F2E773090024AE
:1020CC0000ED00E02DE9F0435E4C85B05E49D4F89C
:1020DC0090300868C3F30723984200F2B080FFF7F2
:1020EC00C1FF49680022904201F10C011AD1574FEF
:1020FC004FF00008564C38706846FFF725FA554DDE
:10210C008146554EC1451ED13B7800204D49D1F832
:10211C009020C2F307229342C0F28B800020FFF77D
:10212C0095FF50E051F80C3C23F01F031343013290
:10213C0043F01003C4F89C3051F8043C43F0010305
:10214C00C4F8A030CFE700984FEA081C00EB081148
:10215C00CB682340B3F5000F4ED00BD8B3F5001F5E
:10216C0034D0B3F5800F3CD0B3F5801F16D008F1F6
:10217C000108C7E7B3F1007F46D0B3F1805F4BD0C5
:10218C00B3F1807FF3D150F80C30886803F046FA35
:10219C0040F088504A6840F4801009E050F80C3048
:1021AC00886803F03BFA40F088504A6840F43020CD
:1021BC00039001A93878CDE90123FFF7EBFE002845
:1021CC0033DA6FF0150005B0BDE8F08350F80C3031
:1021DC00886803F023FA40F088504A6840F40020E5
:1021EC00E6E750F80C30886803F018FA4A6840F0BB
:1021FC00C06040F40030DBE750F80C30886803F026
:10220C000DFA4A682843D3E750F80C30886803F07D
:10221C0005FA4A683043CBE750F80C30886803F075
:10222C00FDF94A6840F08850E3E73B7801333B7096
:10223C009DE7C1F898300133C1F8A00067E74FF073
:10224C00FF30C0E700ED00E0F468000873090024DB
:10225C000000F0FF0000041100000410F0B587B07E
:10226C0007460E4614460021102268461D4603F010
:10227C0026FE02232A4621468DF802306846044B7E
:10228C00CDE90476019302F01DF807B0F0BD00BF54
:10229C004956000808B5024B1B689847002008BD3A
:1022AC0098080024034B044A1860937843F0020307
:1022BC0093707047980800241800002406490748BA
:1022CC0021F00701C1F1105208B502F5002202F00D
:1022DC00F4FA002008BD00BFC71A00249C08002493
:1022EC0007B5084A92E80300CDE900010648826868
:1022FC00126822B16946904703B05DF804FB6FF099
:10230C005700F9E7DC6700087860000800F01F024E
:10231C0001215F2801FA02F208B5034605D90C48E1
:10232C000C4A03F090F8002008BD1F284FF0B04174
:10233C0006D8D1F888309A430CBF01200020F3E76F
:10234C003F2802D8D1F89830F5E7D1F8A830F2E759
:10235C00646700081E73000800F01F0201215F284B
:10236C0001FA02F208B5034606D90B480B4A03F0F2
:10237C006AF86FF0150008BD1F284FF0B04103D864
:10238C00C1F888200020F6E73F2802D8C1F8982031
:10239C00F8E7C1F8A820F5E7646700081E73000889
:1023AC00044B03EB40000023013320F8022B8B423B
:1023BC00FADB7047480000242DE9F0410546002661
:1023CC000F4F4FF00108F4B26B78A34201D8BDE86F
:1023DC00F0812B781C442046FFF798FF68B120460B
:1023EC00FFF7BAFF57F834303BB107EBC40204F0E7
:1023FC001F04516808FA04F098470136E3E700BF60
:10240C00A8080024034680B1B0FA80F2C2F11F0282
:10241C00D2B2074931F912004FF0B042D2F8801015
:10242C000B43C2F88030FFF735BCFF22F1E700BF49
:10243C004800002430B5B0B1B0FA80F3C3F11F03EB
:10244C00DBB20B4850F833408C4204D100EBC3058F
:10245C006D68954205D044B940F8331000EBC300C9
:10246C004260002030BDFF23EBE76FF00F00F9E76F
:10247C00A808002460B1B0FA80F3C3F11F03DBB2EB
:10248C00044A002142F8331002EBC302516070473A
:10249C00FF23F5E7A808002400F003020F23043201
:1024AC0092009340094A43EA900000F00303023380
:1024BC0052F82320030C02EA104293FAA3F008B15D
:1024CC00B0FA80F022FA00F0704700BF0004005808
:1024DC00334B10B518680B88C3F30B03132B37D889
:1024EC0013B96FF0850032E0013B122BF9D801A42F
:1024FC0054F823F09B250008EF24000889250008D8
:10250C004D2500088F250008EF240008EF24000853
:10251C009B2500089B2500089B2500089325000897
:10252C009725000893250008EF240008EF240008E5
:10253C00EF240008EF2400088125000881250008FD
:10254C00184810600968B1F5805F22D2002010BDD8
:10255C00D42B0FD003F62873C3F30B031C2BC0D85A
:10256C00012404FA03F3104C234205D140F2111458
:10257C002342B6D04008E4E78008E2E74FF4FA4083
:10258C00DFE70A48DDE70A48DBE70A48D9E70A48EB
:10259C00D7E7C1F313310131B0FBF1F31360D5E789
:1025AC003400002440787D0100101111006CDC0215
:1025BC00000E270700B4C40400389C1C1FB59F4BA9
:1025CC00D3F8E02042F00072C3F8E020D3F8E0200A
:1025DC0002F000720292029A1A6842F480221A6087
:1025EC001A6842F480321A601A689203FCD55A6F4A
:1025FC0042F001025A67914B5A6F9407FCD51A6846
:10260C0042F480521A601A689004FCD5D3F8F42076
:10261C0042F00202C3F8F420D3F8F43003F00203C2
:10262C000393039B00230193854B9A6942F4404228
:10263C009A619A6902F440420192824AD16A41F04D
:10264C000101D162D26A02F001020192019A9A69E7
:10265C009104FCD5794B1A691A6902F03802182AD0
:10266C0016D11A68520706D41A6842F001021A6091
:10267C001A685407FCD5714B1A6922F007021A61CB
:10268C001A6912F0380FFBD19A6922F00F029A6185
:10269C006A4B1A6822F080721A601A6822F0806203
:1026AC001A601A6822F080521A609A6A22F00302A9
:1026BC0042F002029A629A6A22F47C7242F0500250
:1026CC009A62DA6A22F00C0242F00802DA62DA6AE2
:1026DC0022F00202DA621A6B6FF3080242F0BF02B8
:1026EC001A63DA6A22F00102DA621A6B22F47E4271
:1026FC0042F400721A63DA6A42F48032DA621A6BBC
:10270C0022F4FE0242F480321A63DA6A42F4003296
:10271C00DA621A6B22F0FE4242F080721A63DA6AB5
:10272C0042F48022DA621A6842F080721A601A68E7
:10273C009001FCD59A6A414C22F47C3242F4A042BE
:10274C009A62DA6A22F0C00242F08002DA62DA6A35
:10275C0022F02002DA629A6B6FF3080242F02F0229
:10276C009A63DA6A22F01002DA629A6B22F47E42E1
:10277C0042F400729A63DA6A42F40022DA629A6BCB
:10278C0022F4FE0242F400329A63DA6A42F48012B6
:10279C00DA629A6B22F0FE4242F080729A63DA6A35
:1027AC0042F40012DA621A6842F080621A602368FE
:1027BC001901FCD5244800F0E3FCA3691F4A23F45B
:1027CC007063A361A36923F00F0343F00803A361B3
:1027DC00E36923F0700343F04003E361E36923F4FE
:1027EC00E06343F48063E361A36923F0700343F077
:1027FC004003A361236A23F0700343F04003236278
:10280C00236923F0070343F003032361136903F0E7
:10281C003803182BFAD10A4B9A6942F440429A6158
:10282C009A699204FCD5054A0020136923F40043ED
:10283C001361064B064A1A6004B010BD00440258DE
:10284C000048025800040058001C4E0E34000024AE
:10285C0000389C1C132808D8054BC34013F0010FFB
:10286C000CBF6FF08500002070476FF0850070473B
:10287C003A3F0C0008B5074803F0E3F938B10648B5
:10288C00FFF710FD0448FEF7BDF8002008BD6FF0FF
:10289C001200FBE700620008A92800080A2838B5D6
:1028AC000446074D04D1AB680D2128465B68984758
:1028BC00AB68E1B202485B689847204638BD00BF60
:1028CC00006200082DE9F843D0F8049090460746C2
:1028DC000D46D9F808001E4602F004FFB8F5001F9B
:1028EC00044616D1D9F808402846FFF7D5FD844296
:1028FC000CD1294602F0F6FE044602F0F8FE204602
:10290C00FFF7B8FD0021204602F0FAFE0020BDE8DA
:10291C00F883B8F5800F20D0B6F1806F19D0B6F1DE
:10292C00C06F18D0B6F1007F1AD102263A460F4973
:10293C002046FFF77FFDB0B9D9F80810284602F001
:10294C0008FF2046314602F0DBFE2046FFF75AFD19
:10295C00DCE70126EAE70326E8E76FF08500D6E717
:10296C006FF01500D3E76FF00F00D0E7BD590008EA
:10297C00B0B500AF234D284603F063F9034688BB7E
:10298C006C4688B029686A461F48CDE905014FF4AA
:10299C000071ADF81C101D4942F8101F4FF4E251A4
:1029AC001B48FEF737FBA5466FF012042046BD46C8
:1029BC00B0BD2B686D468AB06A461649CDE9051341
:1029CC000D23CDE907344FF40073ADF82430124BCE
:1029DC0042F8103F00234FF431510D48FEF71AFB1B
:1029EC00AD46E3E72A692846A968136823F4005327
:1029FC0013604FF420220B680D219847041ED8DB7E
:102A0C000024D3E7906100086B73000803000001F9
:102A1C006C67000882730008050000012DE9F04185
:102A2C0082B080460D46436800AF1E68002937D03F
:102A3C00586819698368DB686BB13A1D9847041EA6
:102A4C000CDA1B4A01211B4802F0F4FC2046083723
:102A5C00BD46BDE8F0816FF05704F2E7336823F40C
:102A6C00004333607B6803EB5503B3FBF5F30F2B8B
:102A7C0019D86C468AB0D8F800306A460E490795CA
:102A8C00CDE905134FF40073ADF820300B4B42F831
:102A9C00103F00234FF411510648FEF7BBFAA54630
:102AAC006FF01504D2E79BB20024F360CEE700BFB1
:102ABC00D6730008C4670008047400080400000101
:102ACC00F8B50C46036941681D682379012B18D0B1
:102ADC00A3F1020EDEF1000646EB0E06B602627999
:102AEC00022A96BF464F4FF4005737F81270A2795E
:102AFC00022A09D0042A2FD0003B18BF01231B0344
:102B0C0006E04FF4C066EAE7B3FA83F35B091B07F0
:102B1C00E2790968012A0CBF4FF4407C4FF0000C9D
:102B2C00A5421CD10A6822F0805222F4B0523243E2
:102B3C001A430A604B6823F440533B434B60436891
:102B4C001A68936823F4407343EA0C039360296872
:102B5C00BDE8F840FFF762BF4FF48053D8E7D1F8D7
:102B6C0000E00EF4C06E764506D0D1F800E02EF4ED
:102B7C00C06E4EEA06060E6041680E68716801F47C
:102B8C0040518F4204D0716821F440513943716037
:102B9C0041680E68316801F010218B4204D0316815
:102BAC0021F010210B433360436819688B6803F4E0
:102BBC0040739C4505D08B6823F4407343EA0C03A7
:102BCC008B604368D71E1B687E4299687E41C1F3B7
:102BDC0080318E4207D0032A9A680CBF42F480429F
:102BEC0022F480429A6021682B68994205D0FFF745
:102BFC0015FF08B923682B60F8BD0020FCE700BF67
:102C0C00506A00082DE9F04182B08046446800AF5C
:102C1C006068216983681B6873B19847054668B979
:102C2C003A1D0021606A02F0D9FE051E0EDA284614
:102C3C000837BD46BDE8F0816FF057055F4A0121AA
:102C4C005F4802F0F7FB002DF1DBE9E77B6800221F
:102C5C001979186802F0D4FE051EE8DBD8F8046078
:102C6C00D8F8103034681D68236823F00103236002
:102C7C00B06802F0E6FF38B9524A012150486FF0B3
:102C8C00120502F0D7FBD2E7D6E902018368DB68B4
:102C9C0003B1984754E8003F43F00C0344E800327A
:102CAC00002AF7D129464046FFF70AFF05460028BF
:102CBC0052D1337E1BB1A36843F00803A360737E2B
:102CCC001BB1636843F400436360B37E1BB163685C
:102CDC0043F480336360F37E1BB1636843F40033C9
:102CEC006360337F002B55D0374B9C4237D0A3F514
:102CFC004C439C4233D003F580639C422FD003F5A8
:102D0C0080639C422BD003F580639C4227D003F553
:102D1C0044439C4223D0A3F51C439C421FD003F593
:102D2C0080639C421BD0294B9C4218D06C4688B0C7
:102D3C00D8F800306A462649CDE905134FF40073E4
:102D4C00ADF81C30234B42F8103F00234FF4E251F6
:102D5C001B48FEF75FF9A5466FF0150567E7D8F835
:102D6C0004301A68936843F4804393602368727F3D
:102D7C0023F0787343EA425323602368B27F23F431
:102D8C00F81343EA02432360F37F1BB1A36843F4B7
:102D9C000043A36096F820301BB1236843F0005326
:102DAC002360236843F001032360E3699A02FCD596
:102DBC00E3695B023FF53BAFFAE700BF1B74000809
:102DCC00C46700083B74000800100140000C005858
:102DDC0056740008030000012DE9F04143680246D7
:102DEC000D461C6803691E680B79012B17D0981EC1
:102DFC0041424141890295F805E0AF79BEF1020FDD
:102E0C0096BF3C484FF4005C30F81EC0022F09D02E
:102E1C00042F01D0002B63D04FF4805005E04FF409
:102E2C00C061E8E7002B58D00020A3F10308B8F1EB
:102E3C00010F04D86FF085031846BDE8F0810BB183
:102E4C00042FF7D0BCF5805F4CD0BCF5405F4BD065
:102E5C00BCF1000F0CBF012303239E45EAD102F005
:102E6C0023FE8742E6D1EB791BB3012B3ED1224BDB
:102E7C009C421ED0A3F54C439C421AD003F58063B0
:102E8C009C4216D003F580639C4212D003F58063FC
:102E9C009C420ED003F544439C420AD0A3F51C433C
:102EAC009C4206D003F580639C4202D0134B9C429B
:102EBC00C0D123682946104623F001032360FFF795
:102ECC00FFFD03460028B5D1226842F001022260C2
:102EDC0095E8030086E80300AEE74FF08050B1E7B9
:102EEC001846AFE70023B8E70223B6E7032BBED0A2
:102EFC00A0E700BF506A000800100140000C005809
:102F0C004FF0E02310B599691C699B6900B103600F
:102F1C000B4A0C481268002908BF1146002B08BF49
:102F2C00134614F4803F01D1994205D20168114433
:102F3C0001604FF0E021096900681044C01A10BD0F
:102F4C00380900242C09002408B50020FFF7D8FF0D
:102F5C00014B1B68184408BD300900242C4B2D4A2A
:102F6C0073B519682C4CD2E90032D4E90065CB1842
:102F7C0042F100021B1842F10002954208BF9E422A
:102F8C0041D0C4E900324AF6C364A04203D8231AE4
:102F9C00994298BF0C184BF680335C431F4B1D684D
:102FAC00FFF7D2FF431B9C422FD9241A6FF07F43AB
:102FBC002C449C4228BF1C46194B1B68A34205D9C4
:102FCC00184A1178F9B901211C461170164D01A847
:102FDC00FFF796FF154B296800261A6808441C60F9
:102FEC0013494FF0E023013C0E6099695C614FF08E
:102FFC0000749E61C3F8044D019B994288BF9B18D5
:10300C005B1A1844286002B070BD0024D4E700BFDE
:10301C0028090024A805002400000024B005002481
:10302C0034090024740900243009002438090024D0
:10303C002C09002438B51022134B4BF68035002494
:10304C0083F823204FF49652104B1A604BF67F32C4
:10305C000F4B1D600F4B1C604FF0E0235A61072291
:10306C009C611A61FFF770FF0B4BB0FBF5F0C3E9E5
:10307C0000046843094BC3E90004094B01201C60A0
:10308C00FFF76CFF204638BD00ED00E0340900244A
:10309C00380900242C090024A8050024B0050024BC
:1030AC0028090024F8B5164C0546D4E90076FFF73C
:1030BC004BFF4BF68033C01B124A4FF0000CB0FB99
:1030CC00F3F04343DB194FF0FF3746F10006C4E938
:1030DC000036D2E900314FF0FF361B1841F10001E8
:1030EC00C2E90031084B2946C3F800C0074BC3E9BD
:1030FC000067074B83F800C0BDE8F84000F06CBFD8
:10310C00B0050024A8050024280900240000002490
:10311C0074090024064B10B51C68FFF715FF4BF61D
:10312C008033001BB0FBF3F0024B186010BD00BFE6
:10313C00B005002428090024684620F007018D46BC
:10314C0019B5EFF31184102383F31288BFF36F8F3B
:10315C000020FFF7D5FE084A084910680B680344A5
:10316C0020460B6000231360FFF79CFFFEF734FE34
:10317C00BDE81940854670472C090024300900240D
:10318C00002852D02B4A936903F44043B3F5404FC7
:10319C001FD1294B294A0344934242D9284B294A2F
:1031AC00034493423FD9284B98423ED800232749E9
:1031BC000A6822F00F021A430A600A6802F00F0232
:1031CC00934234D0086800F00F00C01A18BF0120D9
:1031DC007047936903F44043B3F5004F0ED11C4A7A
:1031EC001C4B02449A421AD91B4A02449A4218D9DF
:1031FC001A4A02449A4216D90133D5E7184A194B98
:10320C0002449A4209D9184A02449A4207D9174AE9
:10321C0002449A4205D9164AEBE70423C7E7032375
:10322C00C5E70223C3E70123C1E701207047002053
:10323C00704700BF00480258FFC4A7F7FFE0F50530
:10324C007FE2D3FB7F1D2C04801D2C040020005238
:10325C00BF4C2AF6BF3B47037F8871F93FC4B8FCCB
:10326C00FF6A45F53FA5AE023F10F4F77FB5A2FA11
:10327C00BF5A51FD10B50446FDF700FE01F068FD84
:10328C0003480121034A02F0D5F8204602F0E4FC81
:10329C0094670008937400082DE9F843044600AFC6
:1032AC000D46EFF31188102383F31288BFF36F8F51
:1032BC00DFF8B890D9F8086001F04AFD01F048FD3C
:1032CC00042C99F81010E94698BF294B8AB08CBF92
:1032DC00284B53F824306A46CDE9073140F20133CC
:1032EC002548ADF82430254BCDE9050442F8103FB4
:1032FC0000234FF431512248FDF78CFECD4655B1D9
:10330C00EB69C3F3080333B101F022FD1D4A01211F
:10331C001B4802F08FF801F01BFD2EB1304602F075
:10332C00C3FC08B1037803B91748E9468AB06A466A
:10333C00164B0790CDE9053640F20133ADF820303D
:10334C00134B42F8103F00234FF411510C48FDF77A
:10335C0061FE29462046CD46FFF78CFF88F3118885
:10336C003046FEF747FDBD46BDE8F8833C09002416
:10337C00246A0008A2740008B87400080500000153
:10338C0094670008E0740008B07400080075000829
:10339C000400000138B50A4B53F82040013053F8B3
:1033AC002050A54200D838BD606830B1037EDB07E1
:1033BC0001D402F02EFC0834F3E723689847FAE7AF
:1033CC00386A000870B5294B0122294C86B0294D6A
:1033DC001A70AC421BD30320274C284DFFF7DAFFA1
:1033EC000420FFF7D7FF26463034AE4213D3224CCD
:1033FC0000F030FCAC422AD300F03EFCFDF7C8F8DC
:10340C001F4A938923F00103938106B070BD54F8D1
:10341C00043B9847DDE754F80C3C059354F8103CFA
:10342C00049354F8143C039354F8183C029354F846
:10343C001C3C019354F8203C009354E90A2354E9B2
:10344C000C0100F01FF954F8303C5E65CBE7D4E971
:10345C000A23206852EA030103D102F027FC30341E
:10346C00C8E70849183000F0D1FCF8E775090024CA
:10347C00F0660008F0660008F0660008F0660008C8
:10348C0048060024E15D000870B59023154E86B007
:10349C00012203FB00660023134D044601931349DC
:1034AC00CDE904230F22CDE9023214234FF4A0728C
:1034BC0003FB00554FF4C0700D4B00FB041130465C
:1034CC00009500F0DFF8337C0A4A23F00403EE6029
:1034DC002C7433744FF4046304FB033313446B6098
:1034EC0006B070BDB80500243C090024001500246A
:1034FC00755C0008C00C00247FB50020FFF74AFF64
:10350C002B4B83F308882B4CF0232B4D84F8223063
:10351C000023E37723766376A37684F82030636AFE
:10352C0043F4E0236362FEF771FBFEF74FFC4FF0B0
:10353C00FF33A362E362214CFEF7C4FDFEF70EFDE0
:10354C00FDF7FCFB1E4800F0F7F8FDF7A5FAAC42BE
:10355C002AD301201B4CFFF71DFF0220FFF71AFF97
:10356C00002500F06FFB184B4FF4806217495C612B
:10357C002046174B009505930123CDE90155CDE964
:10358C000353144B00F07EF8237C0646204623F0B0
:10359C000403237402F0D7FB2846FFF775FF0D4A8E
:1035AC0031462046FEF7F4FB54F8043B9847CEE72F
:1035BC000015002400ED00E0F0660008F06600083D
:1035CC00D8060024480600243C0900248016002458
:1035DC009A6C0008D133000870B5EFF311861023F4
:1035EC0083F31288BFF36F8F046884421CD0DCB164
:1035FC00002504F11800D4E9003213605A60237CD2
:10360C00A56023F00203C4E90055237400F090FC7C
:10361C002046C4F88850656100F016F93146074819
:10362C00BDE8704000F010BAD0E902329A4218BFDF
:10363C000133836086F3118870BD00BF76090024C6
:10364C0013B5EFF31181102484F31288BFF36F8F3D
:10365C00846834B1013C846081F31188002002B08D
:10366C0010BD52EA030404D181F311886FF00F00EE
:10367C00F5E7CDE900230246014800F05FFAEEE7DA
:10368C007609002407322DE9F04322F0070285B0B9
:10369C001F4600F158037F3200250E460F9922F089
:1036AC003F0204468173002185603F2AC57306F1F1
:1036BC004009A2F14008C0E91633109B83814FF0FA
:1036CC000403C0E9065503744FF00000C4E9080177
:1036DC0003D885F31188184602DFB5182046294611
:1036EC00FEF704F8A37B0730314684F8803020F0D5
:1036FC0007000E9BC4E918984FF00008A0662D1A1D
:10370C002046C4F87C802A46C4E91D8802930D9B90
:10371C0001930C9B00933B46FEF70CFB054BC4F846
:10372C0054809B6803B1DB6E2846E36605B0BDE8A8
:10373C00F08300BF3C0900240123827B0374838146
:10374C00002380F88020C367C366C0E91D33C0E93D
:10375C001833014B986070473C090024F0B50025E4
:10376C0087B004460595109D04950F9D03950E9DFD
:10377C0002950D9D01950C9DDDE912760095FFF7E4
:10378C0081FF56EA070305D1204602F08FFA204646
:10379C0007B0F0BD3A46334604F11800014900F079
:1037AC0035FBF4E7E15D00080A4B6FF00A019A68FB
:1037BC00C2F888104FF08051C2F88400064A51605C
:1037CC00002282F31188BFF36F8F9B68D3F88800B7
:1037DC00704700BF3C09002400ED00E038B5184CE0
:1037EC00A168E0690B68814214BF1A46002249683F
:1037FC000B605960A368E1692AB9124AC3E9002138
:10380C000B60E3610AE092F90E5093F90E008542C9
:10381C0012DD5168C3E900210B605360A569094BA7
:10382C009D4200D005B9E568A3689D4202D02846A8
:10383C0002F0F7FA656138BD8A42DED01268DBE728
:10384C003C0900245409002470B590F91020037C25
:10385C00002A2FDBD9062DD11A4C63F07F032246A8
:10386C000374E16952F8183F934207D1C0E9002173
:10387C000860E0610FE09942F8D01B68002BF5D08E
:10388C0093F90E6090F90E50AE42F4DD5968C0E920
:10389C00003108605860A569954200D005B9E5680B
:1038AC00A3681A7CD20606D1DA897F2A03D9AA69C1
:1038BC000AB9636170BDAB4202D0284602F0B1FA7E
:1038CC006561F7E73C09002438B590F910200146F2
:1038DC00037C002A04DA03F07F03037402F021FA5C
:1038EC000D4D2A46AB6852F8184F944200D004B9DB
:1038FC00EC688B4207D01A7CD20604D1DA897F2A75
:10390C0001D9A2692AB1A34202D0204602F089FA59
:10391C0023466B6138BD00BF3C090024002A2DE909
:10392C00F8430CBF4FF010084FF00808027C044617
:10393C000D4618EA020F60D148EA0203D2090CD1F5
:10394C000374B8F1080F75D1A36813B1204602F0C7
:10395C00F0F904F1180610270DE003F07F0303744F
:10396C0002F0DFF9EDE785F31188EFF3118587F3AA
:10397C001288BFF36F8F304600F0DAFA0B30F2D0BA
:10398C0004F15807A66DB74211D04FF0000976B17B
:10399C00304602F0CEF906F11800C6F8889000F017
:1039AC00C7FA3046FFF750FFA66DB742EFD1244B54
:1039BC009B689C423ED1EFF30587003F18BF01275F
:1039CC00DFF87C904B4653F8186F9E4200D00EB92E
:1039DC00D9F80C60D9F80830B34202D0304602F066
:1039EC0020FAB8F1100FC9F8146006D0204601F087
:1039FC00FFFD17B11348FFF79FFE114B9B68A342C5
:103A0C001AD1EFF30583BBB9A289D2070DD585F383
:103A1C00118883F311880423184602DFEFF3118514
:103A2C00102383F31288BFF36F8F2846BDE8F84349
:103A3C00FFF7BABE0027C3E785F31188BDE8F8830A
:103A4C003C090024D806002449B9EFF3058030B9AD
:103A5C00044B5A699B689A4201D0FFF7A5BE81F3CB
:103A6C00118870473C09002401460148FFF7ECBF60
:103A7C007609002470B50F4D06462B4653F8184FA7
:103A8C009C4200D004B9EC68AB681A7CD20604D115
:103A9C00DA897F2A01D9A2692AB1A34202D0204631
:103AAC0002F0BFF9234630466B61BDE87040FFF76A
:103ABC00DBBF00BF3C09002470B5EFF31186102367
:103ACC0083F31288BFF36F8F1A4CA168E0690B68FF
:103ADC00814214BF1A46002249680B605960A368E2
:103AEC00E1692AB9144AC3E900210B60E3610AE0D9
:103AFC0092F90E5093F90E00854216DD5168C3E918
:103B0C0000210B605360A5690B4B9D4200D005B999
:103B1C00E568A3689D4202D0284602F082F930463F
:103B2C006561BDE87040FFF73FBE8A42DAD012688B
:103B3C00D7E700BF3C09002454090024F8B5DDE99F
:103B4C0006670C461146EFF305832BB1002383F374
:103B5C0011880423184602DF0D4B0E4A986810603A
:103B6C00EFF31182102282F31288BFF36F8F9D68DE
:103B7C00284602F0F5F832463B4605F11800064996
:103B8C0000F044F92046BDE8F840FFF70DBE00BF39
:103B9C003C0900245C090024E15D000851EA0003A3
:103BAC002DE9F04706460D460746884605D102F03A
:103BBC00B6F838464146BDE8F087EFF3118910237B
:103BCC0083F31288BFF36F8FDFF868A01A4BDAF813
:103BDC0008001860FFF778FEDAF8080032462B462A
:103BEC001649183000F012F9DAF8083004461A7C3D
:103BFC00C3F8849042F004021A746FF00A02C3F8FE
:103C0C0088204FF080520E4B5A60002383F31188AA
:103C1C00BFF36F8FB5F1FF3F08BFB6F1FF3FC8D0C0
:103C2C0002F028F9201A20EAE07007464FEAE07803
:103C3C00BFE700BF3C0900245C090024E15D0008DB
:103C4C0000ED00E0024B03F11802C3E906227047B5
:103C5C003C090024EFF31181102383F31288BFF386
:103C6C006F8F044B9A68D37B013BD37381F311881C
:103C7C00704700BF3C090024EFF31180102383F33D
:103C8C001288BFF36F8F034B9A68D37B0133D373C6
:103C9C00FFF7F0BE3C090024014B9868704700BF49
:103CAC003C090024027C034612F01F0210D10A4981
:103CBC0088420DD00949086868B1D9897F2909D88B
:103CCC0093F90E20064B1B689A42B8BF0020704730
:103CDC000020704710467047B805002438000024B7
:103CEC0064090024094B0122BFF35B8FC01A084BF7
:103CFC00C0105843074B03EB800353E8001F43E805
:103D0C0000200028F9D1BFF35B8F704768070024AF
:103D1C00ABAAAAAA60090024F8B5144B0446144DAA
:103D2C001E7C182303FB0655284600F001F9114BA5
:103D3C0003EB86076CB1BFF35B8F53F82630BFF3F0
:103D4C005B8F03B1013C2246E3170B49284600F078
:103D5C005DF80023BFF35B8F57E8002F47E8003175
:103D6C000029F9D1BFF35B8FF8BD00BF3C090024DB
:103D7C006807002460090024F13C0008F8B5EFF353
:103D8C001187102383F31288BFF36F8F144E154BDA
:103D9C00B5681868A84204D102F043F887F311887B
:103DAC00F8BD00221A60327C0F4BBFF35B8F53F8C7
:103DBC002230BFF35B8F002BF0D02846FFF772FF49
:103DCC0004460028EAD02B7CDB06E7D1FFF706FD82
:103DDC007369AB42E2D12046FFF79EFFDEE700BFDE
:103DEC003C0900245C09002460090024024B18687B
:103DFC00984208BF002070473C000024024B186812
:103E0C0008B1FFF787B9704744000024B3F1FF3FB6
:103E1C0008BFB2F1FF3F2DE9F84F0446994615460D
:103E2C001F467CD00161EFF31186102383F31288B7
:103E3C00BFF36F8FB9F1000FDFF8E88024DBFFF7D9
:103E4C00DDFF394B01461A68003A18BF01224519AB
:103E5C0049F100035219D8E9005743F100034FF020
:103E6C000108551943EB0707DFF8C090C4E902239A
:103E7C00FFF7BCFFD9F804A0E0B9C4E9009ACAF86E
:103E8C000040C9F8044027E0D8E900136FF00102A4
:103E9C004FF00008521A4FF0FF3161EB0303521B35
:103EAC0063EB0903012A73F100014146BCBF0122F7
:103EBC000023D9E7D0E9022ED4E9023C93427CEBF3
:103ECC000E0B23DAD21A6EEB0C03C0E90223436803
:103EDC00C4E900031C604460FFF788FF84420FD1E3
:103EEC00114B1B6801330BD1B8F1000F02D1FFF756
:103EFC0085FF0146084601F09BFF002101F087FE7B
:103F0C0086F3118828463946BDE8F88F9B1A6CEB6E
:103F1C000E025045C4E90232AFD00068ACE7002570
:103F2C002F46EFE780070024440000243C000024C7
:103F3C00F8B50446EFF31186102383F31288BFF310
:103F4C006F8F026862B3FFF751FF174B5B689C429F
:103F5C0008D0D2E90231D4E90275DB1941EB050135
:103F6C00C2E90231D4E900320025844213605A6060
:103F7C00C4E900550CD000200C4A136823F0010151
:103F8C008C4204BF43F00103136086F31188F8BD23
:103F9C00FFF734FF01F04CFF294601F038FEEAE749
:103FAC006FF01500E8E700BF3C000024680900240E
:103FBC00EFF31182102383F31288BFF36F8F054B3D
:103FCC0040F001001B681B1A5842584182F31188BB
:103FDC00704700BF680900242DE9F0470023324EDA
:103FEC00324D0C46DFF8C890324F30602B60D6F85B
:103FFC000080B8F1000F0ED14FF0FF3340462B601C
:10400C0001F016FF414601F002FE84F31188BDE871
:10401C00F047FFF7B3BEFFF7E9FE6FF0004330B196
:10402C00D0E90212994272F10002B8BF0B46434527
:10403C00194684BF434641464FEAE37C38B1826857
:10404C00D0F80CE0D21A6EEB0C0EC0E9022ED9F8A7
:10405C000020A8EB01014FF0000A4FF01008D21815
:10406C00D9F80430316043EB0C03C9E90023FFF7A6
:10407C00BDFE0028BBD0D0E902120A43B7D138608C
:10408C00D0E900210A6051600269C0E900AA84F3FA
:10409C0011889047EFF3118488F31288BFF36F8F68
:1040AC00C7F800A0E3E700BF6C090024440000241B
:1040BC00800700246809002410B5EFF31184102345
:1040CC0083F31288BFF36F8FFFF798FE044AD2E98F
:1040DC000031C01841F1000184F3118810BD00BFFC
:1040EC00800700242DE9F0410446EFF311861023DC
:1040FC0083F31288BFF36F8F03681BB186F31188AB
:10410C00BDE8F081FFF754FF07460028F6D1D4E94B
:10411C000A586A1C48F10003022A73F1000324D3E5
:10412C0001F0ACFE281848EB0101012871F10001E7
:10413C0042DB01F0A3FE6FF00203281848EB0101EB
:10414C0083426FF000438B413BDB01F097FE6FF035
:10415C0001022D1848EB0103521B4FF0FF3161EBAC
:10416C0003031A492046FFF751FE236B01332363E7
:10417C00236A53B186F3118820469847EFF31186D2
:10418C00102383F31288BFF36F8F54F8180FA042DB
:10419C00B4D00028B2D0D0E9003213605A600023AA
:1041AC00027C836022F00202C0F88830C0E9003340
:1041BC000274FFF749FBA1E76FF001024FF0FF33E8
:1041CC00CFE73A464FF00043CBE700BFF140000881
:1041DC00B3F1FF3F08BFB2F1FF3FF8B504461646F6
:1041EC001D4616D0EFF31187102383F31288BFF30B
:1041FC006F8FFFF79DFE0023324623632B46DDE9CC
:10420C000601C4E90A0120460249FFF7FFFD87F3C6
:10421C001188F8BDF140000870B50546EFF3118424
:10422C00102686F31288BFF36F8FFFF781FE10B153
:10423C0084F3118870BD6B6A53B184F311886B6A77
:10424C0028469847EFF3118486F31288BFF36F8FDB
:10425C0005F1180001F0D1FD0028E9D001F073FD43
:10426C0021460248BDE87040FFF7EEBB76090024FA
:10427C000CB430B58BB004460D462022002102A8A8
:10428C0001F01DFE02238DF80A30002D0C4B039318
:10429C00069412DB01D06B1E1C440FAA0E990794D6
:1042AC0002A8019200F00EF815B1069B00221A70BC
:1042BC000BB0BDE8304002B070470024EDE700BF02
:1042CC00A15F00082DE9F04F8BB043680093837811
:1042DC009C078046924640F1F9800025087800281A
:1042EC0000F0F68025280AD04B1C0193013541467D
:1042FC00009B98470028C0F2E3800199EEE74E78C6
:10430C008B1C252E0193F1D00027B9463C460A227E
:10431C001F2C22D8A6F12003102B20D8DFE803F0A5
:10432C00141F1F1A1F1F1F0B1F1F1F121F171F1FCA
:10433C00090044F00104019B13F8016B0193002E5A
:10434C00E6D13AE044F0020444F00404F3E744F00C
:10435C000804F0E744F01004EDE77F2C24D8A6F114
:10436C003003092B08D860064EBF02FB073702FB4F
:10437C00093944F02004DEE72A2E0DD161065AF8E3
:10438C00043B53D4002BA7BF44F020049946C3F13F
:10439C00000944F02804CEE72E2E05D1630600F167
:1043AC00978044F04004C6E76C2E2ED028D8682E97
:1043BC0032D06A2E37D04C2E35D0002F46F0200349
:1043CC00B8BF24F04004A3F16502BCBFA4B200271F
:1043DC00022A01D9612B2BD10AF1070A2AF0070A0C
:1043EC009C4E0AF1080A0727210760D506EB070B3C
:1043FC0034465C455DD1AE1BA219A9EB070959E106
:10440C00742E98D07A2E96D0D7E7260648BF44F45F
:10441C00007444F080048EE7E00548BF44F4007457
:10442C0044F4807487E744F4207484E71F4682E7E1
:10443C00A6F16302122A00F2D880DFE812F0130012
:10444C004D00D600D600D600D6004D00D600D600C2
:10445C00D600D600D600E800D100D600D6001A004F
:10446C00D600A0005AF8043B8DF81030012704AE9A
:10447C00BAE75AF8046B784B002E08BF1E4614F0AE
:10448C00400F14BF39464FF0FF31304601F01FFD8D
:10449C000746A9E7009B41462020984700280FDBE0
:1044AC00013CA742F6D34D442D1BA1469EE74C463A
:1044BC00F7E714F8010B009B41469847002898DA5F
:1044CC0098F8023043F0040388F802304FF0FF35BF
:1044DC0028460BB0BDE8F08F220630D5A3052AD5AF
:1044EC000AF1070A2AF007039A4659685AF8080B8A
:1044FC0024F0100B00291FFA8BFB2FDA404261EBE2
:10450C0041014BF4806B04AC0A23224601F0EBFC16
:10451C001BF0400FA0EB040200F08E802BF0010486
:10452C009742A4B240F38F80002E40F08E802BF087
:10453C001104A4B21DE05AF8040BC117D8E7E0052A
:10454C005AF8041B01D40846F7E7A2054BBF48B242
:10455C0008B241F3C01141F3C031C9E750EA01037D
:10456C00D1D16306CFD5002FCDD124F01104A4B244
:10457C003A463B4640F206410C4262D124E024F01C
:10458C001004A4B20A2314F0800243D014F4007176
:10459C001FBF0AF1070A2AF007029246516814BF9E
:1045AC005AF8080B5AF8040B50EA01023ED124F0D9
:1045BC00160B62061FFA8BFB3CD5002F3AD124F068
:1045CC001704A4B23A463B4621075AD4E10705D555
:1045DC00994572DDA9EB03039F184B469B464AE0B5
:1045EC0044F0100410237826CDE7782B04D1C6F1C3
:1045FC00780343F01003C6E7009B414625209847FB
:10460C000028FFF65DAF02354146304670E60823C0
:10461C000026B8E714F480715AF8040BC4D014F4D3
:10462C0000711ABFC0B2114680B2BDE724F0060477
:10463C001FFA84FB04AC68E713465C46E10699D587
:10464C002EB90133C0E71346F8E73B46F6E70233D1
:10465C00BAE700BF65750008C56B0008CDE90232EA
:10466C004146009B202098470028FFF629AFDDE942
:10467C0002320BF1010BD945F0DCEB1A03EB0B0505
:10468C005B46E10627D5CDE902324146009B30203E
:10469C0098470028FFF614AFDDE902327EB90135E8
:1046AC002F44791B8A4229DB144604AE9CBB2A4456
:1046BC00A9EB03091546914442E017468EE7CDE974
:1046CC000232023541463046009B98470028DDE90E
:1046DC000232E5DAF4E640F206410C42E0D014F086
:1046EC00020F14BF2B20202014F4806FCDE902326E
:1046FC0005F10105414618BF2D20E5E7CDE9023251
:10470C004146009B302098470028DDE9023205F134
:10471C000105C6DAD4E6013CCDE90232305D009BDE
:10472C00414698470028DDE90232BFDAC8E6009B13
:10473C00414620209847002805F10105FFF6C0AE40
:10474C00A9EB0503002BF2DCD7E500BF7047002274
:10475C00962008B51146FDF7ABFA9620BDE8084047
:10476C00FDF798BA436801221B681A6070474368CA
:10477C00FF221B68DA60704743681B6898687047B3
:10478C0043681B6858687047436801221B685A606D
:10479C0070470069FEF754BF836800EBC101B3F5A5
:1047AC00004F2CBF51F8220031F81200704700EB7B
:1047BC00C1018068B0F5004F2CBF41F8223021F8C0
:1047CC0012307047012208B5FFF7E6FFD04008BD54
:1047DC00836800EBC101B3F5004F08D34B681AB1E5
:1047EC0043F001034B60704723F00103FAE74B8859
:1047FC001AB143F001034B80704723F00103FAE731
:10480C0053000122FFF7D3BF08B58368B3F5004FFF
:10481C0006D3FFF7D7FF01288CBF0020012008BD6D
:10482C000020FCE78368B3F5004F28BF0139B1FACB
:10483C0081F0C0F11F0070472DE9F04104460D4690
:10484C00FFF7E2FFB8BB29462046FFF7BBFF014646
:10485C002046FFF7E7FF04EB80010E6996B90122B1
:10486C00E3688240204613430222E3602B460D612D
:10487C002946FFF79CFF032229462046BDE8F0415C
:10488C00FFF795BF022231462046FFF785FF2946E8
:10489C00034607462046FFF78AFF03223346294684
:1048AC002046FFF784FF39462B462046FFF77FFF53
:1048BC0002223146E1E7BDE8F081B2F5802F34BF2A
:1048CC0004230823D21A2DE9F0418C18CD1D0026A3
:1048DC0025F0070524F00704641B05602846EE60EC
:1048EC00E4082146AC60FFF79DFF3146820005F1DC
:1048FC00100002F11B07043201F0E1FA3146FF0807
:10490C0028463A46A4EB0708FFF77AFF33463246AF
:10491C0031462846FFF74BFF284631460122FFF768
:10492C0057FF42463946FFF76BFF3B463246394646
:10493C002846FFF73CFF21462846FFF761FF434618
:10494C00324621462846FFF732FF214628460122EF
:10495C00FFF73EFF3946BDE8F041FFF76DBF2DE98B
:10496C00F04F994691B002F0040305460E461046EE
:10497C000293C2F3C203AC07DDF868A003F1010394
:10498C00049340F092812C1D8DBB01F00706341D61
:10499C00C6F1080600274FF0FF334FF0040800F073
:1049AC000201019309F1FF32BB464346039700977E
:1049BC0005910DB1C4F800900498002809DC484614
:1049CC00CDE90632FBF766FEDDE90632002800F081
:1049DC00B2800598002800F0CC80A4EB050C0120D7
:1049EC00BCF5007FC0F0AD806FF0150003E0072927
:1049FC00D0D86FF01B0011B0BDE8F08F7A285BD8CF
:104A0C004B280FD8472857D829282ED8252850D0DE
:104A1C0052D8202818BF23280CBF4FF0010B4FF0A1
:104A2C00000B71E04C382E2846D8DFE800F06D45BD
:104A3C004545454545454545454548454545454517
:104A4C00454545564548485656566D486A456D4548
:104A5C0018481845457F7C48454548457C00002052
:104A6C004FF0000B4FF0040835E02A380121C0B29A
:104A7C0001FA00F010EA0E0F46D110F0625C2CD156
:104A8C0010EA010B40D06046013C4444B4FBF8F4FE
:104A9C0008FB04F425B1A3EB050CA444B445A8D839
:104AAC00002800F0818004995AF8049B0139049184
:104ABC007FE70199013901914FF0000B24E012F8C6
:104ACC00010C6C2834D112F8023C00206C2B83466C
:104ADC00C8D14FF008084346D6E70AF1070A073455
:104AEC002AF0070A24F00704FAE802BC35B106984C
:104AFC002044B0423FF67DAFC4E900BC08344FF00F
:104B0C00000B4FF00808434612F8010F002864D040
:104B1C00BBF1000F7FF472AF2528F5D1019B4FF04C
:104B2C00010B013301934FF00408ECE7584697E76B
:104B3C0000208346A8E70599A4EB050C00297FF417
:104B4C004FAF00990F293FF64FAFEDB14031CCF389
:104B5C00870C0DEB010E01990EF820CC0EF8101CF1
:104B6C0070B16CF07F0C01370EF820CC009801303E
:104B7C000090C5F1080104344FF6DA7E0691C3E7C4
:104B8C00039801300390F1E708B10136EEE7029982
:104B9C0002360029EAD14846CDE90632FBF792FBF2
:104BAC000644DDE90632E1E7042B08D10AF10400E2
:104BBC0015B1DAF80010216004348246A4E70AF13A
:104BCC00070323F0070303F1080A1DB1D3E9000121
:104BDC00C4E900010834082396E7631BB3F5806F22
:104BEC00BFF402AF1DB9A6F10804E01803E79B0857
:104BFC00029A28602B709DF80C30BAB1EB70AF7034
:104C0C0037B108A80022C5F1010C009B93420FD1CB
:104C1C00C5F101030DF120084FF0000A0DF1300B26
:104C2C000193009B534512D1601BE4E66B70E6E7E1
:104C3C0010F8013B190608D50CEB040E03F07F03AA
:104C4C00B6453FF6D6AE04F8013B0132DDE71FB1A5
:104C5C0098F90020002A17DB029BD3B11AF80B201D
:104C6C0004F8012B0022019B18191044B0423FF6A6
:104C7C00C0AE98F800004946039204F8010B204698
:104C8C0001F00FF9039A14440AF1010A08F1010822
:104C9C00C7E798F80020029B55F8229045F822307F
:104CAC004846FBF70FFB421CDDE76FF00D00A2E658
:104CBC002DE9F04706460D46174698462BB398F853
:104CCC0000404FF0000A93F80190A400DB7804EB4D
:104CDC00430498F802301C444444CA4509D308F1F3
:104CEC000803D8F8042039463046AC46BDE8F047F6
:104CFC00604714F8013B0AF1010A204648F82340AA
:104D0C00FBF7E0FA01300444E7E76FF01500BDE86B
:104D1C00F08730B502460024002012F8013B43B165
:104D2C0078B18C4207D1702B04D0A3F140053A2DF9
:104D3C0007D8002030BDA3F140053A2D01D801342D
:104D4C00EAE7252B08BF80F00100E6E7002070475A
:104D5C0070470FB407B504A951F8040B019100F08A
:104D6C00E6FA03B05DF804EB04B0704710B50369C4
:104D7C00024613F0080009D11368D4689C4297BF0F
:104D8C00126AE31A0120D31A0B6010BD00231846D7
:104D9C00FAE713B501A90446FFF7E8FF20B1019B20
:104DAC00E268013B13440193206A019BC01A01384D
:104DBC0002B010BD10B5044650182269236AD20700
:104DCC0002D5013B184010BD984228BFC01AFAE723
:104DDC0010B504460A46C168FFF7ECFF2369E06092
:104DEC0023F00803236110BD38B58B00C2690D4652
:104DFC00016843F00203044642F821302A46016858
:104E0C00FFF7D8FFE36861682A4698422060204685
:104E1C0002BF236943F008032361FFF7CBFF6060F7
:104E2C0038BD2DE9F74FD0F80CB09A46C6690F463D
:104E3C000092002116F82B2006EB8B03044602F09F
:104E4C0003020193009B022A0CBF56F82B208946C3
:104E5C00196008BFC2F39D09CAF80010B9F1000F20
:104E6C0007D04946FFF7B4FFE368A3604FF0010891
:104E7C0004E001698A0705D44FF00008404603B0EE
:104E8C00BDE8F08F816906EB8B00884716F82B1074
:104E9C00054611F00108EFD08B071DD51FB139461F
:104EAC002046FFF7A1FF61682A462046FFF782FFE4
:104EBC006060D4E902138B4207D12A462046FFF7E3
:104ECC0079FF4FF000080146A0602369216043F090
:104EDC000803E1602361D1E701462046FFF778FF24
:104EEC00E168A1601FB12068E16941F82090EA19DE
:104EFC002046CAF800202168FFF75CFF2269206079
:104F0C0042F00802226116F82B2022F0010206F86A
:104F1C002B20DDE900321A60A8E770B5044615466F
:104F2C00FFF748FF2368834205D12369216023F0F2
:104F3C000803236170BDAB00E269204643F0020315
:104F4C0042F821302A466168FFF734FF6060F1E7D0
:104F5C0038B5036904465B0706D5456AFFF719FFA8
:104F6C0085422CBF6562606238BD38B50D461C2287
:104F7C000021044600F0A3FFEB680022A361AB689C
:104F8C0063612B68E3616B68626223622A6923B1F7
:104F9C00591E194208BF42F001022261012204F19C
:104FAC0028000021BDE8384000F069BE2DE9F04F23
:104FBC009846036A002587B08B4204460E469346FA
:104FCC00AA460395059536D3EFF31189102383F385
:104FDC001288BFF36F8F059A2AB129462046FFF736
:104FEC009CFF0023059304A92046FFF7BFFE0499FC
:104FFC000746B14228D322682046E36913F82210F1
:10500C0003EB820A21F0030103F8221032462168D7
:10501C00FFF7D0FEE3682060984210D0002789F398
:10502C001188039929B162690AB12046904700237F
:10503C000393002FC8D1504607B0BDE8F08F236909
:10504C0043F008032361E9E718B12046FFF7CCFED3
:10505C00E5E75BEA08031AD0019100F01CFE019908
:10506C00A8B9B9F1000F12D189F311885A464346F9
:10507C0004F12800FEF7E4FAEFF31189102383F30F
:10508C001288BFF36F8FB0FA80F77F09C7E705ABC3
:10509C0003AA20462568FFF7C4FE0746BFE770B594
:1050AC000446836908460D4698470246EFF311867D
:1050BC00102383F31288BFF36F8F2B78204643F0B5
:1050CC0001032B706168FFF775FE60602046FFF7E7
:1050DC003FFF86F3118870BD2DE9F041044610277F
:1050EC000020EFF3118687F31288BFF36F8F2269CC
:1050FC00A368150702D462689A4200D2226AD21AB7
:10510C0032B986F31188002837D14FF0000831E00E
:10511C00E16911F8232001EB830812F00305F0D0AC
:10512C00022D03D151F82350AD0805D1D00711D46D
:10513C00A369404698470546A1682A462046FFF7D2
:10514C0039FE2946A0602046FFF742FE86F31188FF
:10515C000120C6E742F00202404601F82320A56870
:10516C00A3699847294602462046FFF723FEA06014
:10517C0086F311884046BDE8F08104F12800FEF763
:10518C002BFAC2E7F8B50446836908460D469847E2
:10519C000646EFF31187102383F31288BFF36F8F4A
:1051AC002B7823F001032B7023699B0705D5E2684C
:1051BC00E36903EB82039D4218D12B7823F00203A1
:1051CC002B70D4E90231994204D132462046FFF7C4
:1051DC00F1FDA06031462046FFF7FAFD87F31188F8
:1051EC0004F12800BDE8F840FEF7F6B92B6860F32F
:1051FC009F032B60F2E7EFF31181102383F31288E6
:10520C00BFF36F8F02698368120702D442689A4217
:10521C0000D2026AD31A81F31188181E18BF01201C
:10522C0070477047F0B5012402F4C04640688C40CA
:10523C00B6F5804F406804FA01F53ED10729C2F358
:10524C0043272ED805FA01F3066A8B40C3EB031CE7
:10525C007B4326EA0C06334303624668C2F3C03331
:10526C008B4026EA04010B434360846805EB45013F
:10527C00C2F3014324EA01046B4323438360C2F36A
:10528C008143C468C2F341326B4324EA01046A438C
:10529C002343C360036823EA01031A43026000201E
:1052AC00F0BD230A466A5B435B43C3EB031C5F43BD
:1052BC0026EA0C063E434662CFE7B6F5005FD4D132
:1052CC004768C2F3C03606FA01F127EA04063143F7
:1052DC004160002BC9D0D30258BF24048461C4E7B9
:1052EC0003785B075FBF03684288C3F34A2303EB71
:1052FC0012105DBF173020F00700800800207047A7
:10530C00002070470346BFF35B8F53E8000F421C2D
:10531C0043E800210029F8D1BFF35B8F704708B533
:10532C0000F0ACFD0A220023FAF7B2FF08BD1FB54E
:10533C000023CDE902011A4619461846CDE900337F
:10534C00FBF7E8FE05B05DF804FB0120FBF79CBC05
:10535C00002070474368DA71012243681960436882
:10536C005A71FBF783BC70B515460C4669B1D2E98E
:10537C0001369B1B99420AD813680A4601469819B4
:10538C0000F08FFDAB682344AB60204670BD6FF01E
:10539C001B00FBE770B50E4615461946044618B9B6
:1053AC00BDE87040FBF770BC33B1C2F34A23103038
:1053BC00120D184400F075FD2046C4E90056BDE8F6
:1053CC007040FBF707BE2DE9F3415F1C06460C4607
:1053DC0015464FEA870808F1170020F007008008EF
:1053EC00FBF7D4FC00238DF80470ADF805308DF874
:1053FC00073068B1019A0346A8F1040143F8102F55
:10540C002A46294452F8045B8A4243F8045FF9D1D6
:10541C00A2010023314602F4E07242EA482222F053
:10542C007F4222F4700222F03F0202B0BDE8F0414C
:10543C00FFF7B0BF07B50123019201AAFFF7C3FF25
:10544C0003B05DF804FB07B5CDE9002302236A46DF
:10545C00FFF7B9FF03B05DF804FBF8B506460D463F
:10546C0014461F4604B9F8BD214628463A46B047B3
:10547C00241A0544F6E710B582680446C168006832
:10548C00D2E90023FFF7E9FFA36800221A6010BDE0
:10549C0038B58B6805460C461A680B699A4202D1DE
:1054AC000846FFF7E8FFA368BFF35B8F53E8002FB4
:1054BC00511C43E800100028F8D1BFF35B8FE36860
:1054CC0000209D5438BD0A2838B504460D4602D13B
:1054DC000D20FFF7DDFF29462046FFF7D9FF0020FE
:1054EC0038BD2DE9F043054689B008460E8891F881
:1054FC0000900C46D1F808801746FBF75DFE011EA4
:10550C00C6F38216C9F3C20920DB4846FBF774FDCB
:10551C0003462146608851F8102BC0F30B100296FD
:10552C00C2F34A22002A01EB02044FF0000208BF2A
:10553C000021CDE90507CDE9031428464146CDE904
:10554C000022FBF765FE09B0BDE8F0830023E0E71D
:10555C00436800201B685B681961704743681B68CF
:10556C001A689268536070472DE9F0414368012135
:10557C001B685A6811751D68D5E902362F68D3E986
:10558C0000481CB9AB681C60BDE8F0812146304670
:10559C004246B847241A0644F3E743681B68186868
:1055AC00FBF77EBF70B543680C461D686B681869C5
:1055BC00FBF746FB214603460F222868BDE87040E6
:1055CC00184700F07CBC00F06CBC01460068FCF78E
:1055DC0023B808B5FCF786F8BDE80840FCF7FCBB1F
:1055EC000A460121FFF726BF00210120FCF714B861
:1055FC006FF08500704761B662B680F31188704712
:10560C0072B6002383F31188BFF36F8FBFF34F8FF4
:10561C0030BF62B6BFF36F8F70477047202809D92F
:10562C00B0F1004F08D80138B0FA80F0C0F11F007B
:10563C0040007047082070473E20704708B5D1E9FC
:10564C0004319847002008BD08B5FCF723FE002064
:10565C0008BD08B5062201210020FCF7A1FE00229E
:10566C0006201146FCF724FB012107220846FCF713
:10567C0097FE002207201146FCF71AFB0822012195
:10568C000220FCF78DFE002208201146FCF710FBCF
:10569C00092201210320FCF783FE00220920114678
:1056AC00FCF706FB0A2201210420FCF779FE0022FC
:1056BC000A201146FCF7FCFA052117220846FCF7D4
:1056CC006FFE002217201146FCF7F2FA2822062161
:1056DC000A20FCF765FE002228201146FCF7E8FAA8
:1056EC00002008BD01F01F010120884070474FF0D9
:1056FC00B042D2F8803023EA0003C2F88030704701
:10570C00032925D8DFE801F0020D121C4FF0B0433D
:10571C001A6822EA00021A605A6822EA00025A60E9
:10572C0070474FF0B0431A680243F4E74FF0B043B0
:10573C005A6802435A601A6822EA00021A607047DB
:10574C004FF0B0431A6802431A605A68104358600D
:10575C00704700F003020F2304329200934043EA97
:10576C00900000F00303020C92FAA2F29B0003F1EA
:10577C00B04303F5806310B59C6824EA10400AB16D
:10578C00B2FA82F291400143996010BD0B88C3F3C9
:10579C000B0303F62C72C2F30B02202A0AD803F176
:1057AC00B0434968002003F511331A6822EA01025C
:1057BC001A6070476FF08500704770B508884A68AA
:1057CC00C0F30B0094B2C2F30445FDF743F8A0B943
:1057DC00FF2A11D0C2F34156012304F1B041120E3D
:1057EC00013601F51131AA40B3400C68013BAB40C6
:1057FC0024EA030313430B6070BD6FF08500FBE7D5
:10580C0017B40B880A46C3F30B0303F62C74C4F3CA
:10581C000B04202C04D9002203B010BCFFF7CDBF21
:10582C0003F1B043506803F51133196801430020AC
:10583C0019601388C3F30B0303F1B04303F5113361
:10584C001B680193019B03B010BC70470888C0F320
:10585C000B0008B500F62C73C3F30B03202B0AD8EE
:10586C0000F1B0404B6800F51130026893430CBF57
:10587C000220012008BDFCF7EDFF00280CBF022020
:10588C000120F7E7436800205B681B690B607047D9
:10589C0043685B68586942400A40424000205A61A4
:1058AC007047436800205B6899617047436809043E
:1058BC0000205B6899617047436800205B685A69F7
:1058CC0051405961704730B50369986800B30024A2
:1058DC00884219D108688CB9DC689860A14200D163
:1058EC00D860002008602AB19A680A60DA6899606A
:1058FC0002B9D96000200FE02846E9E72060D8689B
:10590C00814208BFDC60ECE705680446002DF3D14A
:10591C00002AE9D16FF0150030BDF8B512F400344F
:10592C000D46076902F030061DD0940718D55107B3
:10593C003BD54FF42044130301D544F48014102EAE
:10594C002ED144F4802412F4403611D0796821FA17
:10595C0005F3DB075FBF0123AB400B437B6007E024
:10596C004FF40054E7E7D103E9D4F6B94FF4C0443F
:10597C0002F44023D2012946003B02F4403218BF06
:10598C0001232243FFF74EFC46B97B6823FA05F24C
:10599C00D20741BF0122AA4093437B600020F8BD8F
:1059AC00202E08BF44F40024CDE76FF08500F6E705
:1059BC0070B50B690E460546996809B10C6801B9BA
:1059CC0070BD8A682A4002D04B68304698471CB19B
:1059DC00236821461C46F2E72346FAE730B50368F4
:1059EC0013600579046804EBC504A34202D36FF07D
:1059FC00010030BD5C7908338C42F1D10020F8E70E
:105A0C00F8B5044600EB8105AC4201D100200FE053
:105A1C0054F8046B06F01F00C6F34317FBF716F897
:105A2C0038B1012332463946FFF7FCFB0028EBDA8C
:105A3C00F8BD6FF01200FBE74368C1F34B1001F0A7
:105A4C001F011B68C05801238B4003400020003B02
:105A5C0018BF01231370704710B54368C1F34B1086
:105A6C0001F01F011A68012384588B402343835093
:105A7C00002010BD10B54368C1F34B14012201F096
:105A8C001F0118688A40235823EA02032350002080
:105A9C0010BD38B504460D46FFF7DEFF29462046FB
:105AAC00FFF7E8FF002038BDB0F5805F07D0B0F1FC
:105ABC00805F09D100290CBF02200120704700290A
:105ACC000CBF04200320704700290CBF03200220C8
:105ADC00704743681B68D869DA69C0F3C00002F0EC
:105AEC00010240EA4200DA699207DA6948BF40F0E5
:105AFC0004005107DA6948BF40F02000D20504D5F4
:105B0C004FF4807240F008001A62C10701D50822D8
:105B1C001A62820701D501221A62410701D50222BD
:105B2C001A62820601D504221A62704710B54368C6
:105B3C0010201B68DA691206FCD5EFF3118280F392
:105B4C001288BFF36F8FDC69240602D482F31188AC
:105B5C00F0E7996282F3118810BD43681B68DA691B
:105B6C00100701D508221A62DA69920603D55B6A1E
:105B7C0000200B7070474FF0FF30704710B5026972
:105B8C0004460B46126812680A6042681268126872
:105B9C0002F4C062B2F5806F33D0A2F5C06042420D
:105BAC0042411A7162681268526802F44052B2F5AE
:105BBC00805F28D0B2F5405F27D0002A0CBF0122AD
:105BCC0003225A71626812681068116800F0102084
:105BDC0001F4C061FFF768FF9871626800201268D9
:105BEC00926802F44072A2F540714A424A41DA715D
:105BFC0061680968896811F4804F18BF0322DA7153
:105C0C0010BD0222CDE70022DBE70222D9E7FDF727
:105C1C00A5B910B5436904463BB90020E26840427F
:105C2C00537843F00103537010BD98470028F4D00B
:105C3C000028E368B8BF4042FF28A8BFFF201870B7
:105C4C00ECE740B1C368587810F001001EBF18781B
:105C5C00B0FA80F040097047EFF31183102383F3FF
:105C6C001288BFF36F8FFEE710B51024EFF311838A
:105C7C0084F31288BFF36F8FFFF7C2FCF6E73AB1DB
:105C8C008A4205D3C0E90212C0E900000020704727
:105C9C006FF015007047EFF30580003818BF012036
:105CAC0070476FF0570070470020704738B50446B6
:105CBC00EFF31185102383F31288BFF36F8F037CEE
:105CCC005B070ED51830FEF733F9237C204623F002
:105CDC0004032374FDF7B8FD2846BDE83840FDF7F2
:105CEC00C3BE85F3118838BD38B58589EFF31181B2
